:1000000002008AE5836003E49322A882E622E58366
:100010006004E4938003A882E6F822E5836004E4A8
:10002000938003A882E6F922E5836004E4938003C9
:10003000A882E6FA22E5836004E4938003A882E6BE
:10004000FB22E5836004E4938003A882E6FC22E5BA
:10005000836004E4938003A882E6FD22E5836004C4
:10006000E4938003A882E6FE22E5836004E49380A3
:1000700003A882E6FF22E4F5D075812878207A086B
:0D008000F608DAFC1201060200000200760C
:1001000063796265720002023475260175270075F5
:10011000803875A00175A000E4F520F521E52124C3
:10012000FDE52034FF40028003020228E4F524F5B7
:1001300025801175802075A00375A0020525E52591
:1001400070020524E520B52407E521B525028006C7
:100150005002800280DDE4F522F523E52324FAE550
:100160002234FF500280028002802DE5232527F5EE
:1001700082E5223526F583120003F58075A003750C
:10018000A0020523E52370020522E52324FAE522D7
:1001900034FF5002800280D375800175A00175A0E4
:1001A000007580C075A00175A000E4F522F52380DC
:1001B0001175802075A00375A0020523E523700248
:1001C0000522E520B52207E521B52302800650026D
:1001D000800280DDE4F524F525E52524FAE52434C4
:1001E000FF500280028002802DE5252527F582E55B
:1001F000243526F583120003F58075A00375A0024F
:100200000525E52570020524E52524FAE52434FFBB
:100210005002800280D375800175A00175A0007521
:10022000808075A00175A0000521E52170020520E0
:0702300002011D2202010979
:00000001FF
